:100000000C9446000C9465000C9465000C946500FB
:100010000C9465000C9465000C9465000C946500CC
:100020000C9465000C9465000C9465000C946500BC
:100030000C9465000C940C010C9465000C94650004
:100040000C9465000C9465000C9465000C9465009C
:100050000C9465000C9465000C9465000C9465008C
:100060000C9465000C9465000C9465000C9465007C
:100070000C9465000C9465000C9465000C9465006C
:100080000C9465000C9465000C94650011241FBE4F
:10009000CFEFD0E4DEBFCDBF11E0A0E0B1E0EAEFEA
:1000A000F6E000E00BBF02C007900D92A431B1074B
:1000B000D9F721E0A4E1B1E001C01D92AC31B20753
:1000C000E1F70E944F030C947B030C940000CF9344
:1000D000DF9300D01F92CDB7DEB789837B836A831D
:1000E00089818A3031F48A819B81BC018DE00E9434
:1000F000670080EC90E0FC018081882F90E08072A6
:100100009927892BB1F386EC90E02981FC012083AB
:1001100080E090E00F900F900F90DF91CF910895C5
:10012000CF93DF9300D000D0CDB7DEB769837A8359
:100130008B839C8389819A81AB81BC8180930E01E2
:1001400090930F01A0931001B093110180910E01C3
:1001500090910F01A0911001B091110180931501B0
:1001600090931601A0931701B093180100000F900F
:100170000F900F900F90DF91CF910895CF93DF9361
:10018000CDB7DEB781E890E02BE0FC01208388E862
:1001900090E02DE730E0FC01318320838FE690E092
:1001A00022E0FC01208384E890E0FC0111821082AF
:1001B00080910E0190910F01A0911001B091110159
:1001C0008093150190931601A0931701B093180125
:1001D0008FE590E02FE530E0F90120812068FC01F7
:1001E00020830000DF91CF910895CF93DF93CDB7A7
:1001F000DEB781E890E0FC0110820000DF91CF9132
:100200000895CF93DF93CDB7DEB781E080931401DB
:100210000000DF91CF9108951F920F9200905F0030
:100220000F92112400905B000F922F933F934F93F6
:100230005F936F937F938F939F93AF93BF93EF934E
:10024000FF93CF93DF93CDB7DEB7809115019091E7
:100250001601A0911701B09118010197A109B109E8
:100260008093150190931601A0931701B093180184
:100270008091150190911601A0911701B09118017C
:10028000892B8A2B8B2B91F40E94010180910E0106
:1002900090910F01A0911001B0911101809315016F
:1002A00090931601A0931701B09318010000DF91FD
:1002B000CF91FF91EF91BF91AF919F918F917F91DE
:1002C0006F915F914F913F912F910F9000925B0042
:1002D0000F9000925F000F901F901895CF93DF93BF
:1002E000CDB7DEB780911A0190911B018230910544
:1002F00009F47DC08330910528F4009759F00197E7
:10030000A9F049C18330910509F4CAC0049709F4E2
:1003100020C141C188E290E027E0FC01208381E018
:1003200090E090931B0180931A013AC180E290E023
:10033000FC018081882F90E081709927892B89F0BA
:1003400080E290E0FC018081882F90E08270992704
:10035000892B39F081E090E090931B0180931A0182
:1003600045C080E290E0FC018081882F90E08170A0
:100370009927892BA9F480E290E0FC018081882FE5
:1003800090E082709927892B59F080911201809317
:10039000190182E090E090931B0180931A0126C01E
:1003A00080E290E0FC018081882F90E081709927A5
:1003B000892BA9F080E290E0FC018081882F90E0F9
:1003C00082709927892B59F4809112018093190129
:1003D00083E090E090931B0180931A0107C084E0B2
:1003E00090E090931B0180931A01DAC0D9C080E29B
:1003F00090E0FC018081882F90E081709927892B03
:1004000089F080E290E0FC018081882F90E082708A
:100410009927892B39F081E090E090931B0180931C
:100420001A013DC080E290E0FC018081882F90E0BD
:1004300081709927892B89F480E290E0FC0180810A
:10044000882F90E082709927892B39F082E090E024
:1004500090931B0180931A0122C080E290E0FC017E
:100460008081882F90E081709927892B89F080E224
:1004700090E0FC018081882F90E082709927892B81
:1004800039F483E090E090931B0180931A0107C038
:1004900084E090E090931B0180931A0181C080C09A
:1004A00080E290E0FC018081882F90E081709927A4
:1004B000892B89F080E290E0FC018081882F90E018
:1004C00082709927892B39F081E090E090931B018D
:1004D00080931A013DC080E290E0FC018081882F6A
:1004E00090E081709927892B89F480E290E0FC01EB
:1004F0008081882F90E082709927892B39F082E0E3
:1005000090E090931B0180931A0122C080E290E05A
:10051000FC018081882F90E081709927892B89F0D8
:1005200080E290E0FC018081882F90E08270992722
:10053000892B39F483E090E090931B0180931A019A
:1005400007C084E090E090931B0180931A0128C0BB
:1005500027C080E290E0FC018081882F90E08170CC
:100560009927892B51F080E290E0FC018081882F4F
:1005700090E082709927892B39F484E090E0909381
:100580001B0180931A010CC081E090E090931B0145
:1005900080931A0105C010921B0110921A010000ED
:1005A00080911A0190911B018230910599F083305E
:1005B000910530F4009709F469C0019741F061C0DA
:1005C0008330910589F1049709F456C05AC01092FE
:1005D000190161C09091190180911201981760F47E
:1005E00088E290E0FC018081893030F4809119012B
:1005F0008F5F809319014CC0909119018091120175
:10060000981708F445C088E290E0FC0180818930A9
:1006100008F03EC01092190188E290E0FC012081B0
:100620002F5FFC01208334C0909119018091120149
:10063000981760F488E290E0FC018081882331F013
:10064000809119018F5F8093190124C09091190145
:10065000809112019817F0F088E290E0FC0180810F
:100660008823C1F01092190188E290E0FC012081FA
:100670002150FC0120830EC088E290E0FC01108232
:100680000AC085E290E0FC01108205C0000003C0B2
:10069000000001C000000000DF91CF910895CF93CA
:1006A000DF93CDB7DEB781E290E0FC01108282E2F9
:1006B00090E02FEFFC01208387E290E02FEFFC0118
:1006C000208388E290E0FC01108264E670E080E024
:1006D00090E00E9490000E94BE0010921B011092B8
:1006E0001A010E946E010000809114018823E1F339
:0A06F00010921401F6CFF894FFCF2A
:1006FA000000000200000000670000000000010086
:04070A0000000A00E1
:00000001FF
